{
  "contractName": "BlackBox",
  "abi": [
    {
      "inputs": [],
      "payable": false,
      "stateMutability": "nonpayable",
      "type": "constructor"
    },
    {
      "constant": true,
      "inputs": [],
      "name": "name",
      "outputs": [
        {
          "internalType": "string",
          "name": "",
          "type": "string"
        }
      ],
      "payable": false,
      "stateMutability": "view",
      "type": "function"
    },
    {
      "constant": true,
      "inputs": [],
      "name": "owner",
      "outputs": [
        {
          "internalType": "address",
          "name": "",
          "type": "address"
        }
      ],
      "payable": false,
      "stateMutability": "view",
      "type": "function"
    },
    {
      "constant": true,
      "inputs": [],
      "name": "getUserSubmissions",
      "outputs": [
        {
          "components": [
            {
              "internalType": "string",
              "name": "pathHash",
              "type": "string"
            },
            {
              "internalType": "uint256",
              "name": "published",
              "type": "uint256"
            }
          ],
          "internalType": "struct BlackBox.Submission[]",
          "name": "submissions",
          "type": "tuple[]"
        }
      ],
      "payable": false,
      "stateMutability": "view",
      "type": "function"
    },
    {
      "constant": false,
      "inputs": [
        {
          "internalType": "string",
          "name": "hashPath",
          "type": "string"
        }
      ],
      "name": "publishFile",
      "outputs": [
        {
          "internalType": "bool",
          "name": "success",
          "type": "bool"
        }
      ],
      "payable": false,
      "stateMutability": "nonpayable",
      "type": "function"
    }
  ],
  "bytecode": "0x60806040526040518060400160405280601c81526020017f426c61636b426f78204441707020536d61727420436f6e7472616374000000008152506001908051906020019061004f9291906100a2565b5034801561005c57600080fd5b50336000806101000a81548173ffffffffffffffffffffffffffffffffffffffff021916908373ffffffffffffffffffffffffffffffffffffffff160217905550610147565b828054600181600116156101000203166002900490600052602060002090601f016020900481019282601f106100e357805160ff1916838001178555610111565b82800160010185558215610111579182015b828111156101105782518255916020019190600101906100f5565b5b50905061011e9190610122565b5090565b61014491905b80821115610140576000816000905550600101610128565b5090565b90565b610856806101566000396000f3fe608060405234801561001057600080fd5b506004361061004c5760003560e01c806306fdde0314610051578063754886ec1461006f5780638da5cb5b1461009f578063f3344e8a146100bd575b600080fd5b6100596100db565b6040516100669190610697565b60405180910390f35b61008960048036036100849190810190610499565b610179565b604051610096919061067c565b60405180910390f35b6100a7610230565b6040516100b4919061063f565b60405180910390f35b6100c5610255565b6040516100d2919061065a565b60405180910390f35b60018054600181600116156101000203166002900480601f0160208091040260200160405190810160405280929190818152602001828054600181600116156101000203166002900480156101715780601f1061014657610100808354040283529160200191610171565b820191906000526020600020905b81548152906001019060200180831161015457829003601f168201915b505050505081565b6000600260003373ffffffffffffffffffffffffffffffffffffffff1673ffffffffffffffffffffffffffffffffffffffff1681526020019081526020016000206000016040518060400160405280848152602001428152509080600181540180825580915050906001820390600052602060002090600202016000909192909190915060008201518160000190805190602001906102199291906103a0565b506020820151816001015550505060019050919050565b6000809054906101000a900473ffffffffffffffffffffffffffffffffffffffff1681565b6060600260003373ffffffffffffffffffffffffffffffffffffffff1673ffffffffffffffffffffffffffffffffffffffff168152602001908152602001600020600001805480602002602001604051908101604052809291908181526020016000905b828210156103975783829060005260206000209060020201604051806040016040529081600082018054600181600116156101000203166002900480601f0160208091040260200160405190810160405280929190818152602001828054600181600116156101000203166002900480156103755780601f1061034a57610100808354040283529160200191610375565b820191906000526020600020905b81548152906001019060200180831161035857829003601f168201915b50505050508152602001600182015481525050815260200190600101906102b9565b50505050905090565b828054600181600116156101000203166002900490600052602060002090601f016020900481019282601f106103e157805160ff191683800117855561040f565b8280016001018555821561040f579182015b8281111561040e5782518255916020019190600101906103f3565b5b50905061041c9190610420565b5090565b61044291905b8082111561043e576000816000905550600101610426565b5090565b90565b600082601f83011261045657600080fd5b8135610469610464826106e6565b6106b9565b9150808252602083016020830185838301111561048557600080fd5b6104908382846107c0565b50505092915050565b6000602082840312156104ab57600080fd5b600082013567ffffffffffffffff8111156104c557600080fd5b6104d184828501610445565b91505092915050565b60006104e683836105f3565b905092915050565b6104f781610778565b82525050565b600061050882610722565b6105128185610745565b93508360208202850161052485610712565b8060005b85811015610560578484038952815161054185826104da565b945061054c83610738565b925060208a01995050600181019050610528565b50829750879550505050505092915050565b61057b8161078a565b82525050565b600061058c8261072d565b6105968185610756565b93506105a68185602086016107cf565b6105af81610802565b840191505092915050565b60006105c58261072d565b6105cf8185610767565b93506105df8185602086016107cf565b6105e881610802565b840191505092915050565b600060408301600083015184820360008601526106108282610581565b91505060208301516106256020860182610630565b508091505092915050565b610639816107b6565b82525050565b600060208201905061065460008301846104ee565b92915050565b6000602082019050818103600083015261067481846104fd565b905092915050565b60006020820190506106916000830184610572565b92915050565b600060208201905081810360008301526106b181846105ba565b905092915050565b6000604051905081810181811067ffffffffffffffff821117156106dc57600080fd5b8060405250919050565b600067ffffffffffffffff8211156106fd57600080fd5b601f19601f8301169050602081019050919050565b6000819050602082019050919050565b600081519050919050565b600081519050919050565b6000602082019050919050565b600082825260208201905092915050565b600082825260208201905092915050565b600082825260208201905092915050565b600061078382610796565b9050919050565b60008115159050919050565b600073ffffffffffffffffffffffffffffffffffffffff82169050919050565b6000819050919050565b82818337600083830152505050565b60005b838110156107ed5780820151818401526020810190506107d2565b838111156107fc576000848401525b50505050565b6000601f19601f830116905091905056fea365627a7a72315820f5edba67c82ce95200fbaf2a7b46f75791fe87f0a92db4e3719d23cb0576b9ac6c6578706572696d656e74616cf564736f6c63430005100040",
  "source": "// SPDX-License-Identifier: MIT\npragma solidity >=0.4.21 <0.7.0;\npragma experimental ABIEncoderV2;\n\n/**\n  @title A IPFS hashtag data mapper\n  @author Steven Duval Ruilova\n  @notice Still very much Proof of Concept\n  @dev Roughtly version 0.0.1\n */\ncontract BlackBox {\n  address public owner;\n  string public name = \"BlackBox DApp Smart Contract\";\n\n  struct Submission {\n    string pathHash;\n    uint256 published;\n  }\n\n  struct User {\n    Submission[] submissions;\n  }\n\n  mapping(address => User) users;\n\n  constructor() public {\n    owner = msg.sender;\n  }\n\n  /**\n    @dev handles submission array data returns based\n    on msg.sender value\n  */\n  function getUserSubmissions () public view returns (Submission[] memory submissions) {\n    return(users[msg.sender].submissions);\n  }\n\n  /**\n    @dev handles hashPath data saving onto specific mapping\n    based on msg.sender value\n  */\n  function publishFile (string memory hashPath) public returns (bool success) {\n    users[msg.sender].submissions.push(\n      Submission({\n        pathHash: hashPath,\n        published: now\n      })\n    );\n\n    return true;\n  }\n}\n",
  "sourcePath": "/Users/stevenduval/Desktop/blackbox/contracts/BlackBox.sol",
  "compiler": {
    "name": "solc",
    "version": "0.5.16+commit.9c3226ce.Emscripten.clang"
  },
  "schemaVersion": "3.2.3",
  "updatedAt": "2021-02-18T03:59:45.701Z",
  "networkType": "ethereum",
  "devdoc": {
    "author": "Steven Duval Ruilova",
    "details": "Roughtly version 0.0.1",
    "methods": {
      "getUserSubmissions()": {
        "details": "handles submission array data returns based on msg.sender value"
      },
      "publishFile(string)": {
        "details": "handles hashPath data saving onto specific mapping based on msg.sender value"
      }
    },
    "title": "A IPFS hashtag data mapper"
  },
  "userdoc": {
    "methods": {},
    "notice": "Still very much Proof of Concept"
  }
}