{
  "contractName": "BlackBox",
  "abi": [
    {
      "inputs": [],
      "payable": false,
      "stateMutability": "nonpayable",
      "type": "constructor"
    },
    {
      "anonymous": false,
      "inputs": [
        {
          "indexed": false,
          "internalType": "string",
          "name": "hashPath",
          "type": "string"
        },
        {
          "indexed": false,
          "internalType": "address",
          "name": "user",
          "type": "address"
        }
      ],
      "name": "Publish",
      "type": "event"
    },
    {
      "constant": true,
      "inputs": [],
      "name": "name",
      "outputs": [
        {
          "internalType": "string",
          "name": "",
          "type": "string"
        }
      ],
      "payable": false,
      "stateMutability": "view",
      "type": "function"
    },
    {
      "constant": true,
      "inputs": [],
      "name": "owner",
      "outputs": [
        {
          "internalType": "address",
          "name": "",
          "type": "address"
        }
      ],
      "payable": false,
      "stateMutability": "view",
      "type": "function"
    },
    {
      "constant": true,
      "inputs": [
        {
          "internalType": "address",
          "name": "user",
          "type": "address"
        }
      ],
      "name": "getUserSubmissions",
      "outputs": [
        {
          "components": [
            {
              "internalType": "string",
              "name": "pathHash",
              "type": "string"
            },
            {
              "internalType": "uint256",
              "name": "published",
              "type": "uint256"
            }
          ],
          "internalType": "struct BlackBox.Submission[]",
          "name": "submissions",
          "type": "tuple[]"
        }
      ],
      "payable": false,
      "stateMutability": "view",
      "type": "function"
    },
    {
      "constant": false,
      "inputs": [
        {
          "internalType": "string",
          "name": "hashPath",
          "type": "string"
        }
      ],
      "name": "publishFile",
      "outputs": [
        {
          "internalType": "bool",
          "name": "success",
          "type": "bool"
        }
      ],
      "payable": false,
      "stateMutability": "nonpayable",
      "type": "function"
    }
  ],
  "bytecode": "0x60806040526040518060400160405280601c81526020017f426c61636b426f78204441707020536d61727420436f6e7472616374000000008152506001908051906020019061004f9291906100a2565b5034801561005c57600080fd5b50336000806101000a81548173ffffffffffffffffffffffffffffffffffffffff021916908373ffffffffffffffffffffffffffffffffffffffff160217905550610147565b828054600181600116156101000203166002900490600052602060002090601f016020900481019282601f106100e357805160ff1916838001178555610111565b82800160010185558215610111579182015b828111156101105782518255916020019190600101906100f5565b5b50905061011e9190610122565b5090565b61014491905b80821115610140576000816000905550600101610128565b5090565b90565b6109b1806101566000396000f3fe608060405234801561001057600080fd5b506004361061004c5760003560e01c806306fdde0314610051578063754886ec1461006f5780638da5cb5b1461009f578063a7b8614d146100bd575b600080fd5b6100596100ed565b604051610066919061076a565b60405180910390f35b61008960048036036100849190810190610524565b61018b565b604051610096919061074f565b60405180910390f35b6100a761027b565b6040516100b49190610712565b60405180910390f35b6100d760048036036100d291908101906104fb565b6102a0565b6040516100e4919061072d565b60405180910390f35b60018054600181600116156101000203166002900480601f0160208091040260200160405190810160405280929190818152602001828054600181600116156101000203166002900480156101835780601f1061015857610100808354040283529160200191610183565b820191906000526020600020905b81548152906001019060200180831161016657829003601f168201915b505050505081565b6000600260003373ffffffffffffffffffffffffffffffffffffffff1673ffffffffffffffffffffffffffffffffffffffff16815260200190815260200160002060000160405180604001604052808481526020014281525090806001815401808255809150509060018203906000526020600020906002020160009091929091909150600082015181600001908051906020019061022b9291906103ed565b50602082015181600101555050507f3cac67f815f9279a3a7f7349a0e227ac8662217e15d82bbb9ac950c9ab994a4a823360405161026a92919061078c565b60405180910390a160019050919050565b6000809054906101000a900473ffffffffffffffffffffffffffffffffffffffff1681565b6060600260008373ffffffffffffffffffffffffffffffffffffffff1673ffffffffffffffffffffffffffffffffffffffff168152602001908152602001600020600001805480602002602001604051908101604052809291908181526020016000905b828210156103e25783829060005260206000209060020201604051806040016040529081600082018054600181600116156101000203166002900480601f0160208091040260200160405190810160405280929190818152602001828054600181600116156101000203166002900480156103c05780601f10610395576101008083540402835291602001916103c0565b820191906000526020600020905b8154815290600101906020018083116103a357829003601f168201915b5050505050815260200160018201548152505081526020019060010190610304565b505050509050919050565b828054600181600116156101000203166002900490600052602060002090601f016020900481019282601f1061042e57805160ff191683800117855561045c565b8280016001018555821561045c579182015b8281111561045b578251825591602001919060010190610440565b5b509050610469919061046d565b5090565b61048f91905b8082111561048b576000816000905550600101610473565b5090565b90565b6000813590506104a181610957565b92915050565b600082601f8301126104b857600080fd5b81356104cb6104c6826107e9565b6107bc565b915080825260208301602083018583830111156104e757600080fd5b6104f2838284610904565b50505092915050565b60006020828403121561050d57600080fd5b600061051b84828501610492565b91505092915050565b60006020828403121561053657600080fd5b600082013567ffffffffffffffff81111561055057600080fd5b61055c848285016104a7565b91505092915050565b600061057183836106c6565b905092915050565b610582816108ce565b82525050565b61059181610886565b82525050565b60006105a282610825565b6105ac8185610853565b9350836020820285016105be85610815565b8060005b858110156105fa57848403895281516105db8582610565565b94506105e683610846565b925060208a019950506001810190506105c2565b50829750879550505050505092915050565b61061581610898565b82525050565b60006106268261083b565b6106308185610875565b9350610640818560208601610913565b61064981610946565b840191505092915050565b600061065f82610830565b6106698185610864565b9350610679818560208601610913565b61068281610946565b840191505092915050565b600061069882610830565b6106a28185610875565b93506106b2818560208601610913565b6106bb81610946565b840191505092915050565b600060408301600083015184820360008601526106e38282610654565b91505060208301516106f86020860182610703565b508091505092915050565b61070c816108c4565b82525050565b60006020820190506107276000830184610588565b92915050565b600060208201905081810360008301526107478184610597565b905092915050565b6000602082019050610764600083018461060c565b92915050565b60006020820190508181036000830152610784818461068d565b905092915050565b600060408201905081810360008301526107a6818561061b565b90506107b56020830184610579565b9392505050565b6000604051905081810181811067ffffffffffffffff821117156107df57600080fd5b8060405250919050565b600067ffffffffffffffff82111561080057600080fd5b601f19601f8301169050602081019050919050565b6000819050602082019050919050565b600081519050919050565b600081519050919050565b600081519050919050565b6000602082019050919050565b600082825260208201905092915050565b600082825260208201905092915050565b600082825260208201905092915050565b6000610891826108a4565b9050919050565b60008115159050919050565b600073ffffffffffffffffffffffffffffffffffffffff82169050919050565b6000819050919050565b60006108d9826108e0565b9050919050565b60006108eb826108f2565b9050919050565b60006108fd826108a4565b9050919050565b82818337600083830152505050565b60005b83811015610931578082015181840152602081019050610916565b83811115610940576000848401525b50505050565b6000601f19601f8301169050919050565b61096081610886565b811461096b57600080fd5b5056fea365627a7a72315820ef1760abae2b5655687a5776054561c79d41fb55dacc912cc304f0fbaa55f5346c6578706572696d656e74616cf564736f6c63430005100040",
  "source": "// SPDX-License-Identifier: MIT\npragma solidity >=0.4.21 <0.7.0;\npragma experimental ABIEncoderV2;\n\n/**\n  @title A IPFS hashtag data mapper\n  @author Steven Duval Ruilova\n  @notice Still very much Proof of Concept\n  @dev Roughtly version 0.0.1\n */\ncontract BlackBox {\n  address public owner;\n  string public name = \"BlackBox DApp Smart Contract\";\n\n  event Publish(string hashPath, address user);\n\n  struct Submission {\n    string pathHash;\n    uint256 published;\n  }\n\n  struct User {\n    Submission[] submissions;\n  }\n\n  mapping(address => User) users;\n\n  constructor() public {\n    owner = msg.sender;\n  }\n\n  /**\n    @dev handles submission array data returns based\n    on msg.sender value\n  */\n  function getUserSubmissions (address user) public view returns (Submission[] memory submissions) {\n    return(users[user].submissions);\n  }\n\n  /**\n    @dev handles hashPath data saving onto specific mapping\n    based on msg.sender value\n  */\n  function publishFile (string memory hashPath) public returns (bool success) {\n    users[msg.sender].submissions.push(\n      Submission({\n        pathHash: hashPath,\n        published: now\n      })\n    );\n\n    emit Publish(hashPath, msg.sender);\n\n    return true;\n  }\n}\n",
  "sourcePath": "/Users/stevenduval/Desktop/blackbox/contracts/BlackBox.sol",
  "compiler": {
    "name": "solc",
    "version": "0.5.16+commit.9c3226ce.Emscripten.clang"
  },
  "schemaVersion": "3.2.3",
  "updatedAt": "2021-02-20T04:49:29.694Z",
  "networkType": "ethereum",
  "devdoc": {
    "author": "Steven Duval Ruilova",
    "details": "Roughtly version 0.0.1",
    "methods": {
      "getUserSubmissions(address)": {
        "details": "handles submission array data returns based on msg.sender value"
      },
      "publishFile(string)": {
        "details": "handles hashPath data saving onto specific mapping based on msg.sender value"
      }
    },
    "title": "A IPFS hashtag data mapper"
  },
  "userdoc": {
    "methods": {},
    "notice": "Still very much Proof of Concept"
  }
}