{
  "contractName": "BlackBox",
  "abi": [
    {
      "inputs": [],
      "payable": false,
      "stateMutability": "nonpayable",
      "type": "constructor"
    },
    {
      "anonymous": false,
      "inputs": [
        {
          "indexed": false,
          "internalType": "string",
          "name": "hashPath",
          "type": "string"
        },
        {
          "indexed": false,
          "internalType": "address",
          "name": "user",
          "type": "address"
        }
      ],
      "name": "Publish",
      "type": "event"
    },
    {
      "constant": true,
      "inputs": [],
      "name": "name",
      "outputs": [
        {
          "internalType": "string",
          "name": "",
          "type": "string"
        }
      ],
      "payable": false,
      "stateMutability": "view",
      "type": "function"
    },
    {
      "constant": true,
      "inputs": [],
      "name": "owner",
      "outputs": [
        {
          "internalType": "address",
          "name": "",
          "type": "address"
        }
      ],
      "payable": false,
      "stateMutability": "view",
      "type": "function"
    },
    {
      "constant": true,
      "inputs": [],
      "name": "getUserSubmissions",
      "outputs": [
        {
          "components": [
            {
              "internalType": "string",
              "name": "pathHash",
              "type": "string"
            },
            {
              "internalType": "uint256",
              "name": "published",
              "type": "uint256"
            }
          ],
          "internalType": "struct BlackBox.Submission[]",
          "name": "submissions",
          "type": "tuple[]"
        }
      ],
      "payable": false,
      "stateMutability": "view",
      "type": "function"
    },
    {
      "constant": false,
      "inputs": [
        {
          "internalType": "string",
          "name": "hashPath",
          "type": "string"
        }
      ],
      "name": "publishFile",
      "outputs": [
        {
          "internalType": "bool",
          "name": "success",
          "type": "bool"
        }
      ],
      "payable": false,
      "stateMutability": "nonpayable",
      "type": "function"
    }
  ],
  "bytecode": "0x60806040526040518060400160405280601c81526020017f426c61636b426f78204441707020536d61727420436f6e7472616374000000008152506001908051906020019061004f9291906100a2565b5034801561005c57600080fd5b50336000806101000a81548173ffffffffffffffffffffffffffffffffffffffff021916908373ffffffffffffffffffffffffffffffffffffffff160217905550610147565b828054600181600116156101000203166002900490600052602060002090601f016020900481019282601f106100e357805160ff1916838001178555610111565b82800160010185558215610111579182015b828111156101105782518255916020019190600101906100f5565b5b50905061011e9190610122565b5090565b61014491905b80821115610140576000816000905550600101610128565b5090565b90565b610948806101566000396000f3fe608060405234801561001057600080fd5b506004361061004c5760003560e01c806306fdde0314610051578063754886ec1461006f5780638da5cb5b1461009f578063f3344e8a146100bd575b600080fd5b6100596100db565b6040516100669190610718565b60405180910390f35b610089600480360361008491908101906104d2565b610179565b60405161009691906106fd565b60405180910390f35b6100a7610269565b6040516100b491906106c0565b60405180910390f35b6100c561028e565b6040516100d291906106db565b60405180910390f35b60018054600181600116156101000203166002900480601f0160208091040260200160405190810160405280929190818152602001828054600181600116156101000203166002900480156101715780601f1061014657610100808354040283529160200191610171565b820191906000526020600020905b81548152906001019060200180831161015457829003601f168201915b505050505081565b6000600260003373ffffffffffffffffffffffffffffffffffffffff1673ffffffffffffffffffffffffffffffffffffffff1681526020019081526020016000206000016040518060400160405280848152602001428152509080600181540180825580915050906001820390600052602060002090600202016000909192909190915060008201518160000190805190602001906102199291906103d9565b50602082015181600101555050507f3cac67f815f9279a3a7f7349a0e227ac8662217e15d82bbb9ac950c9ab994a4a823360405161025892919061073a565b60405180910390a160019050919050565b6000809054906101000a900473ffffffffffffffffffffffffffffffffffffffff1681565b6060600260003373ffffffffffffffffffffffffffffffffffffffff1673ffffffffffffffffffffffffffffffffffffffff168152602001908152602001600020600001805480602002602001604051908101604052809291908181526020016000905b828210156103d05783829060005260206000209060020201604051806040016040529081600082018054600181600116156101000203166002900480601f0160208091040260200160405190810160405280929190818152602001828054600181600116156101000203166002900480156103ae5780601f10610383576101008083540402835291602001916103ae565b820191906000526020600020905b81548152906001019060200180831161039157829003601f168201915b50505050508152602001600182015481525050815260200190600101906102f2565b50505050905090565b828054600181600116156101000203166002900490600052602060002090601f016020900481019282601f1061041a57805160ff1916838001178555610448565b82800160010185558215610448579182015b8281111561044757825182559160200191906001019061042c565b5b5090506104559190610459565b5090565b61047b91905b8082111561047757600081600090555060010161045f565b5090565b90565b600082601f83011261048f57600080fd5b81356104a261049d82610797565b61076a565b915080825260208301602083018583830111156104be57600080fd5b6104c98382846108b2565b50505092915050565b6000602082840312156104e457600080fd5b600082013567ffffffffffffffff8111156104fe57600080fd5b61050a8482850161047e565b91505092915050565b600061051f8383610674565b905092915050565b6105308161087c565b82525050565b61053f81610834565b82525050565b6000610550826107d3565b61055a8185610801565b93508360208202850161056c856107c3565b8060005b858110156105a857848403895281516105898582610513565b9450610594836107f4565b925060208a01995050600181019050610570565b50829750879550505050505092915050565b6105c381610846565b82525050565b60006105d4826107e9565b6105de8185610823565b93506105ee8185602086016108c1565b6105f7816108f4565b840191505092915050565b600061060d826107de565b6106178185610812565b93506106278185602086016108c1565b610630816108f4565b840191505092915050565b6000610646826107de565b6106508185610823565b93506106608185602086016108c1565b610669816108f4565b840191505092915050565b600060408301600083015184820360008601526106918282610602565b91505060208301516106a660208601826106b1565b508091505092915050565b6106ba81610872565b82525050565b60006020820190506106d56000830184610536565b92915050565b600060208201905081810360008301526106f58184610545565b905092915050565b600060208201905061071260008301846105ba565b92915050565b60006020820190508181036000830152610732818461063b565b905092915050565b6000604082019050818103600083015261075481856105c9565b90506107636020830184610527565b9392505050565b6000604051905081810181811067ffffffffffffffff8211171561078d57600080fd5b8060405250919050565b600067ffffffffffffffff8211156107ae57600080fd5b601f19601f8301169050602081019050919050565b6000819050602082019050919050565b600081519050919050565b600081519050919050565b600081519050919050565b6000602082019050919050565b600082825260208201905092915050565b600082825260208201905092915050565b600082825260208201905092915050565b600061083f82610852565b9050919050565b60008115159050919050565b600073ffffffffffffffffffffffffffffffffffffffff82169050919050565b6000819050919050565b60006108878261088e565b9050919050565b6000610899826108a0565b9050919050565b60006108ab82610852565b9050919050565b82818337600083830152505050565b60005b838110156108df5780820151818401526020810190506108c4565b838111156108ee576000848401525b50505050565b6000601f19601f830116905091905056fea365627a7a723158204516dc49959875bac2ca2dbde02dbf69540d3aaa7348955f100901102c990d7c6c6578706572696d656e74616cf564736f6c63430005100040",
  "source": "// SPDX-License-Identifier: MIT\npragma solidity >=0.4.21 <0.7.0;\npragma experimental ABIEncoderV2;\n\n/**\n  @title A IPFS hashtag data mapper\n  @author Steven Duval Ruilova\n  @notice Still very much Proof of Concept\n  @dev Roughtly version 0.0.1\n */\ncontract BlackBox {\n  address public owner;\n  string public name = \"BlackBox DApp Smart Contract\";\n\n  event Publish(string hashPath, address user);\n\n  struct Submission {\n    string pathHash;\n    uint256 published;\n  }\n\n  struct User {\n    Submission[] submissions;\n  }\n\n  mapping(address => User) users;\n\n  constructor() public {\n    owner = msg.sender;\n  }\n\n  /**\n    @dev handles submission array data returns based\n    on msg.sender value\n  */\n  function getUserSubmissions () public view returns (Submission[] memory submissions) {\n    return(users[msg.sender].submissions);\n  }\n\n  /**\n    @dev handles hashPath data saving onto specific mapping\n    based on msg.sender value\n  */\n  function publishFile (string memory hashPath) public returns (bool success) {\n    users[msg.sender].submissions.push(\n      Submission({\n        pathHash: hashPath,\n        published: now\n      })\n    );\n\n    emit Publish(hashPath, msg.sender);\n\n    return true;\n  }\n}\n",
  "sourcePath": "/Users/stevenduval/Desktop/blackbox/contracts/BlackBox.sol",
  "compiler": {
    "name": "solc",
    "version": "0.5.16+commit.9c3226ce.Emscripten.clang"
  },
  "schemaVersion": "3.2.3",
  "updatedAt": "2021-02-22T01:22:07.205Z",
  "networkType": "ethereum",
  "devdoc": {
    "author": "Steven Duval Ruilova",
    "details": "Roughtly version 0.0.1",
    "methods": {
      "getUserSubmissions()": {
        "details": "handles submission array data returns based on msg.sender value"
      },
      "publishFile(string)": {
        "details": "handles hashPath data saving onto specific mapping based on msg.sender value"
      }
    },
    "title": "A IPFS hashtag data mapper"
  },
  "userdoc": {
    "methods": {},
    "notice": "Still very much Proof of Concept"
  }
}